:020000040801F1
:10000000A00C002049020108394F01080709010826
:10001000354F01084D050108AF55010800000000EB
:100020000000000000000000000000005552010820
:100030005105010800000000C94F01086D53010877
:1000400063020108630201086302010863020108F8
:1000500063020108630201086302010863020108E8
:1000600063020108630201086302010863020108D8
:1000700063020108630201086302010863020108C8
:1000800063020108630201086302010863020108B8
:1000900063020108630201086302010863020108A8
:1000A0006302010863020108630201086302010898
:1000B0006302010863020108630201086302010888
:1000C0006302010863020108630201086302010878
:1000D00063020108D95301086302010863020108A1
:1000E0006302010863020108630201086302010858
:1000F0006302010863020108630201086302010848
:100100006302010863020108630201086302010837
:100110006302010863020108630201086302010827
:100120006302010863020108630201086302010817
:100130006302010863020108630201086302010807
:1001400063020108630201086302010863020108F7
:1001500063020108630201086302010863020108E7
:1001600063020108630201086302010863020108D7
:1001700063020108630201086302010863020108C7
:10018000630201086302010800F002F800F044F87D
:100190000AA090E8000C82448344AAF10107DA45E2
:1001A00001D100F039F8AFF2090EBAE80F0013F0F0
:1001B000010F18BFFB1A43F00103184760740000D9
:1001C00080740000103A24BF78C878C1FAD852076A
:1001D00024BF30C830C144BF04680C6070470000C1
:1001E0000023002400250026103A28BF78C1FBD840
:1001F000520728BF30C148BF0B607047642900F028
:100200008380782900F0BA80002070471FB505F080
:100210000BFE1FBD10B510BD00F068F91146FFF7C9
:10022000F5FF05F0A9FA00F086F903B4FFF7F2FF35
:1002300003BC05F0BEF9000030BF72B6704762B66D
:10024000704780F30888704709488047094800478D
:10025000FEE7FEE7FEE7FEE7FEE7FEE7FEE7FEE776
:10026000FEE7FEE704480549034A054B70470000D6
:100270007153010889010108A0080020A00C00208A
:10028000A0080020704700000FB4044910B503AA6D
:10029000029800F0FDF810BC5DF814FB0C00002083
:1002A0002DE9F0410E460446002020622046E16818
:1002B000884730B3252805D0D4E901219047206A2A
:1002C000401CF2E7E168204600278847050018D067
:1002D000A5F14100192802D820354FF400673246B5
:1002E000294620462760FFF789FF40B1012804D046
:1002F000F61D26F007060836D8E7361DD6E728464D
:10030000DAE7206ABDE8F0812DE9F04106460024D5
:1003100010687529314615A510D0AFF3008000286C
:1003200002DA404212A507E031688A0701D511A51B
:1003300002E0490704D510A5012401E0AFF30080D5
:1003400000210A2306F1240707E0B0FBF3F203FBC8
:100350001200303078541046491C0028F5D123464D
:100360002A463046BDE8F04100F038B800000000F1
:100370002D0000002B0000002000000070B5044696
:100380000D4621461068AFF300802188090502D58B
:100390000F4A7A4402E00E4A7A440E32002104F1F8
:1003A000240305E000F00F060009965D5E54491C29
:1003B0000028F7D120780023000704D5702D02D043
:1003C00009B1022311322046BDE8704000F006B8A2
:1003D0005C72000070477047704770472DE9F04726
:1003E0000D4699469246044600F1240801688806A5
:1003F00004D5E06921F01001216000E00120A8424D
:1004000001DD471B00E00027A1697A1902EB090012
:10041000081AA0612078C00602D42046AFF30080FD
:10042000002608E0D4E901211AF806009047206A66
:10043000401C761C20624E45F4DB2078C0060AD5AD
:100440002046AFF3008006E0D4E901213020904738
:10045000206A401C2062381EA7F10107F4DC07E087
:10046000D4E9012118F805009047206A401C206259
:10047000281EA5F10105F3DC2046AFF300802078AB
:10048000000602D50220BDE8F0870120FBE700004E
:10049000074B70B50D467B4400F011F80446284622
:1004A00000F020F810B14FF0FF3070BD204670BD55
:1004B0002B52000001694A1C02610878704700B5A0
:1004C0008FB0CDE901310021059105497944CDE98D
:1004D000031011466846FFF7E3FE0FB000BD0000B1
:1004E000E5FFFFFF007B00F080007047754600F0DD
:1004F00029F8AE4605006946534620F007008546B8
:1005000018B020B5FFF7AEFEBDE820404FF0000662
:100510004FF000074FF000084FF0000B21F00701EB
:10052000AC46ACE8C009ACE8C009ACE8C009ACE82E
:10053000C0098D4670470446AFF300802046FFF7A0
:1005400074FE0000004870473C08002000BFFEE732
:100550007047000030B10749096841F48061054ADD
:10056000116005E00349096821F48061014A1160C6
:1005700070470000003C024070B504460A46002661
:10058000092502B909E0012A01D1160205E0022A73
:1005900001D1160201E04FF4407600F09FF80546C5
:1005A000092D28D11548006820F4407013490860CF
:1005B00008460068304308600846006820F0F800EC
:1005C00008600846006844F0020108430B490860CF
:1005D0000846006840F48030086000F07FF8054667
:1005E0000648006820F002000449086008460068D8
:1005F00020F0F8000860284670BD0000103C024062
:1006000009201349096801F48031B1F5803F01D117
:1006100001201CE00E49096801F0100109B1062013
:1006200015E00B49096801F4807109B102200EE060
:100630000749096801F0EF0109B1072007E0044903
:10064000096801F0020109B1082000E009207047A3
:100650000C3C02400348006840F00040014908603B
:1006600070470000103C024030B502460C46092598
:1006700000F034F80546092D19D10E48006820F421
:1006800040700C4908600846006840F4007008603B
:100690000846006840F001000860146000F01EF891
:1006A00005460448006820F0010002490860284619
:1006B00030BD0000103C02400548006800F00040DA
:1006C00028B1044802490C390860034808607047A3
:1006D000103C024023016745AB89EFCD08B50920E6
:1006E0000090FFF78DFF009002E0FFF789FF009078
:1006F0009DF800000128F8D09DF8000008BD00001A
:1007000051B18200A2F1C042126842F0010382009E
:10071000A2F1C042136009E08200A2F1C042126857
:10072000034B1A408300A3F1C0431A6070470000D6
:10073000FEFF0F00D0E901121143C26811430269A4
:1007400011434269114382691143C2691143026A2C
:100750001143426A1143826A1143C26A1143026B18
:10076000114302689200A2F1C04211608168082919
:100770000BD101688900A1F1C041096841F0400234
:1007800001688900A1F1C0410A60416B0968426BB0
:10079000526841EA0211426B926841EA0221426BBF
:1007A000928941EA0241426B128A41EA0251426B4C
:1007B000127D41EA0261426B926911430268521C48
:1007C0009200A2F1C0421160C16AB1F5804F1BD105
:1007D000816B0968826B526841EA0211826B9268F0
:1007E00041EA0221826B128A41EA0251826B127D38
:1007F00041EA0261826B9269114302689200A2F1A0
:10080000C042C2F8041107E06FF07042016889002D
:10081000A1F1C041C1F804217047F0B50A4600219A
:100820000023002400BF3DE0012505FA01F315680F
:1008300005EA03049C4234D105684F000326BE40FC
:10084000B543056015794E00B5400668354305602F
:100850001579012D02D01579022D16D185684F002A
:100860000326BE40B543856055794E00B540866885
:1008700035438560456801268E40B543456045682F
:1008800096798E40B6B235434560C5684F00032661
:10089000BE40B543C560D5794E00B540C668354306
:1008A000C560491C1029BFD3F0BDF0B5002300245A
:1008B0004D07ED0E02FA05F3CE1000F1200555F8B4
:1008C00026504E07F70E0F26BE40B543CF1000F15D
:1008D000200646F82750CE1000F1200555F8265086
:1008E00045EA0304CE1000F1200545F82640F0BD8E
:1008F0000246002013690B400BB1012000E00020EC
:1009000070470183704700BFFEE700001CB501215E
:10091000112004F05BFB1C20009000208DF80400E7
:1009200003208DF8050001208DF807006946064870
:10093000FFF773FF0120009002208DF80700694641
:100940000248FFF76AFF1CBD001002400000024091
:1009500010B5044614B101202C4908702B480078CA
:10096000002837D010212A48FFF7C2FF78B10821AC
:100970002748FFF7BDFF50B104212548FFF7B8FF16
:1009800028B101212348FFF7B3FF012822D10A2013
:1009900004F030FE00201D49087010211C48FFF7AC
:1009A000A7FF08B9012010BD08211948FFF7A0FFD3
:1009B00008B90220F7E704211548FFF799FF08B9A5
:1009C0000320F0E701211348FFF792FF01281BD114
:1009D0000420E8E710210E48FFF78AFF012813D111
:1009E00008210B48FFF784FF01280DD10421084896
:1009F000FFF77EFF012807D101210648FFF778FFA6
:100A000010B90120014908700020CCE70000002047
:100A1000001002400000024070B50446002617484E
:100A20000588408845431548808846F60401884279
:100A300016D112488079012812D100200F498871FF
:100A40002A2048812B2088810021084604F08AF85A
:100A500001200A4988712B2048812A20888103E0DF
:100A60000021084604F07EF804F030FA002602E087
:100A700003480480761CAE42FAD370BD2C000020DF
:100A80008000006C10B50446002C66D16C4988715A
:100A9000F02008804FF4A07048800846808849F212
:100AA000413188420BD06648808846F6040188426E
:100AB00005D06348808845F2103188421AD12C2035
:100AC0005F4908812A2048812B2088810846808838
:100AD00046F60401884205D05948808845F2103115
:100AE000884206D14FF4A070554908804FF4F07049
:100AF0004880A1E05248808845F21051884210D1C8
:100B00004FF430504E4908814FF4285048814FF43B
:100B10002C5088814FF4F07008804FF44870488062
:100B20008AE04748808841F6631188420DD12C2025
:100B3000434908812B2048812A2088814FF4F07096
:100B400008804FF44870488076E022203C490881B4
:100B500020204881212088816EE001203849887159
:100B60004FF4A0700880F02048800846808849F241
:100B70004131884205D03248808845F210318842A0
:100B800007D12C202E4908812A2048812B208881DA
:100B90003FE02B48808846F60401884207D12C208C
:100BA000274908812B2048812A20888131E0244868
:100BB000808845F21051884210D14FF430502049BE
:100BC00008814FF4285048814FF42C5088814FF40D
:100BD000487008804FF4F07048801AE01848808808
:100BE00041F6631188420DD12C20154908812A2035
:100BF00048812B2088814FF4487008804FF4F070B2
:100C0000488006E022200E490881212048812020CA
:100C100088810B48808846F60401884205D0084840
:100C2000808845F21031884206D14FF4F0700449B3
:100C300008804FF4A0704880002003F01DFE10BD16
:100C40002C00002070B504460D4616465B4880888F
:100C500049F24131884205D05848808845F2103128
:100C6000884214D15549488904F024F9201204F02F
:100C700015F9E0B204F012F95049888904F01AF924
:100C8000281204F00BF9E8B204F008F98CE04B48A4
:100C9000808845F21051884220D14849488904F0A3
:100CA00009F9201204F0FAF844494989491C88B22C
:100CB00004F000F9E0B204F0F1F84049888904F04A
:100CC000F9F8281204F0EAF83C498989491C88B2ED
:100CD00004F0F0F8E8B204F0E1F865E03748808805
:100CE00041F66311884228D13448807920B93348CD
:100CF0000088401E001B84B23049488904F0DAF8AD
:100D0000201204F0CBF8E0B204F0C8F8201204F08E
:100D1000C5F8E0B204F0C2F82849888904F0CAF89E
:100D2000281204F0BBF8E8B204F0B8F8281204F076
:100D3000B5F8E8B204F0B2F836E02048808846F60C
:100D4000040188421DD11D488079012804D11B4827
:100D50000088401E001B84B21849488904F0AAF894
:100D6000201204F09BF8E0B204F098F81349888947
:100D700004F0A0F8281204F091F8E8B204F08EF81C
:100D800012E00E488079012804D10C480088401EEA
:100D9000001B84B209494889214604F0A1F807499B
:100DA0008889294604F09CF8044800890449088091
:100DB0004FF0D840A0F8806070BD00002C000020EB
:100DC0007E00006C2DE9FC4F05460E4617469846FE
:100DD000DDF82C90002001902748808846F6040119
:100DE000884229D124488079012825D1AB4635464F
:100DF00021480088C01B401E86B247461E48008816
:100E0000A0EB0B00401E1FFA80F800201A498871E1
:100E10002A2048812B20888143463A46314628467D
:100E2000CDF80090FFF7CEFF0120134988712B20E9
:100E300048812A2088811DE0781B401C80B20190E7
:100E4000344615E02146284603F08CFE04F03EF8B7
:100E50004FF0000A07E04FF0D840A0F880900AF168
:100E600001001FFA80FA01988245F4DB601C84B20D
:100E70004445E7DDBDE8FC8F2C00002000B5A1B0A3
:100E80000020209001217A2004F0A0F801210846DA
:100E900004F0ACF84FF400401E9001208DF87C0067
:100EA00000208DF87E0002208DF87D0001208DF855
:100EB0007F001EA9FE48FFF7B0FC4CF233701E9075
:100EC00002208DF87C0000208DF87E0003208DF834
:100ED0007D0001208DF87F001EA9F648FFF79DFCDC
:100EE0004FF680701E9002208DF87C0000208DF857
:100EF0007E0003208DF87D0001208DF87F001EA963
:100F0000ED48FFF78AFC4FF480501E9002208DF8C8
:100F10007C0000208DF87E0003208DF87D000120EC
:100F20008DF87F001EA9E548FFF777FC4FF480504D
:100F30001E9002208DF87C0000208DF87E0003209A
:100F40008DF87D0001208DF87F001EA9DC48FFF799
:100F500064FC0C220021D748FFF7A7FC0C220121DA
:100F6000D448FFF7A2FC0C220421D248FFF79DFCD5
:100F70000C220521CF48FFF798FC0C220821CD4810
:100F8000FFF793FC0C220921CA48FFF78EFC0C22C4
:100F90000A21C848FFF789FC0C220E21C548FFF73B
:100FA00084FC0C220F21C348FFF77FFC0C22072191
:100FB000C148FFF77AFC0C220821BF48FFF775FCF7
:100FC0000C220921BC48FFF770FC0C220A21BA4808
:100FD000FFF76BFC0C220B21B748FFF766FC0C22D5
:100FE0001146B548FFF761FC0C220D21B248FFF70E
:100FF0005CFC0C220E21B048FFF757FC0C220F219D
:10100000AD48FFF752FC0C221146AC48FFF74DFCEF
:101010000C221146AA48FFF748FC0F200890002038
:1010200009903C200A9000200B900C900D900E909F
:1010300009200190002002900820039000200490D5
:1010400005900690079006200F90002010901190B8
:101050001020129000201390159014901690179065
:101060004FF480501890002019904FF480401A904F
:1010700000201B9008A81C9001A81D900FA8FFF746
:1010800059FB01210620FFF73BFB322004F0B2FAA6
:101090000121002003F024FF322004F0ABFA0020ED
:1010A00003F0AEFB8749888008468088FF280ADB6A
:1010B000084680884FF6FF71884204D081488088B6
:1010C000B0F5134F7ED1D32003F0F4FE03F08EFB76
:1010D0007C49888003F08AFB7A49888003F086FB8C
:1010E00078498880084680884FF6FF7101EA002021
:1010F0007449888003F07AFB7249898808437149F2
:1011000088800846808849F2413188425AD0BF2001
:1011100003F0D0FE03F06AFB6A49888003F066FBA7
:101120006849888003F062FB6649888003F05EFBB3
:1011300064498880084680884FF6FF7101EA0020E4
:101140006049888003F052FB5E49898808435D4905
:1011500088800846808846F6040188427AD0D420E8
:1011600003F0A8FE03F042FB5649888003F03EFBE3
:101170005449888003F03AFB5249888008468088A9
:101180004FF6FF7101EA00204E49888003F02EFBE4
:101190004C49898808434B4988800846808845F235
:1011A0001031884256D04FF45A4003F083FE03F0CA
:1011B0001DFB444988804FF45B4003F07BFE03F045
:1011C00015FB00E046E03F498880084680884FF6DE
:1011D000FF7101EA00203B4988804FF45C4003F036
:1011E00069FE03F003FB3749898808433549888045
:1011F00008468088B0F5004F02D145F21050888033
:101200003048808845F21051884223D0A12003F055
:1012100051FE03F0EBFA2B49888003F0E7FA2949E5
:101220008880084680884FF6FF7101EA0020254932
:10123000888003F0DBFA23498988084321498880A4
:101240000846808845F26171884203D141F66310F7
:101250001C4988801B48808849F24131884211D05E
:101260001848808845F2103188420BD01548808894
:1012700045F21051884205D01248808841F663112A
:1012800088422DD11048006820F00F004FF0204117
:10129000C1F81C010846D0F81C0120F47060C1F8A8
:1012A0001C010846D0F81C0140F003000EE00000CD
:1012B00000040240000C02400010024000140240F2
:1012C000001802402C0000201C0100A0C1F81C01E5
:1012D0000846D0F81C0140F40070C1F81C0128E059
:1012E000FE48808846F60401884205D0FB48808885
:1012F0004CF2055188421CD1F948006820F00F00DB
:101300004FF02041C1F81C010846D0F81C0120F420
:101310007060C1F81C010846D0F81C0140F00A00BA
:10132000C1F81C010846D0F81C0140F44060C1F827
:101330001C01EA488188EBA0FEF7A6FFE7488088F9
:1013400049F2413188427CD1CF2003F0B3FD002027
:1013500003F0A4FDC12003F0A1FD302003F09EFDA9
:10136000ED2003F0A7FD642003F098FD032003F0B7
:1013700095FD122003F092FD812003F08FFDE820FF
:1013800003F098FD852003F089FD102003F086FD11
:101390007A2003F083FDCB2003F08CFD392003F08D
:1013A0007DFD2C2003F07AFD002003F077FD342032
:1013B00003F074FD022003F071FDF72003F07AFDC5
:1013C000202003F06BFDEA2003F074FD002003F001
:1013D00065FD002003F062FDC02003F06BFD1B20C3
:1013E00003F05CFDC12003F065FD012003F056FD14
:1013F000C52003F05FFD302003F050FD302003F0E6
:101400004DFDC72003F056FDB72003F047FD362001
:1014100003F050FD482003F041FD3A2003F04AFD5F
:10142000552003F03BFDB12003F044FD002003F004
:1014300035FD1A2003F032FDB62003F03BFD0A20F3
:1014400000E099E003F02AFDA22003F027FDF2203E
:1014500003F030FD002003F021FD262003F02AFDDB
:10146000012003F01BFDE02003F024FD0F2003F01A
:1014700015FD2A2003F012FD282003F00FFD08209F
:1014800003F00CFD0E2003F009FD082003F006FD1B
:10149000542003F003FDA92003F000FD432003F0D6
:1014A000FDFC0A2003F0FAFC0F2003F0F7FC0020FB
:1014B00003F0F4FC002003F0F1FC002003F0EEFC4C
:1014C000002003F0EBFCE12003F0F4FC002003F02B
:1014D000E5FC152003F0E2FC172003F0DFFC0720F9
:1014E00003F0DCFC112003F0D9FC062003F0D6FC4D
:1014F0002B2003F0D3FC562003F0D0FC3C2003F05B
:10150000CDFC052003F0CAFC102003F0C7FC0F201F
:1015100003F0C4FC3F2003F0C1FC3F2003F0BEFCFD
:101520000F2003F0BBFC2B2003F0C4FC002003F0D1
:10153000B5FC002003F0B2FC012003F0AFFC3F201B
:1015400003F0ACFC2A2003F0B5FC002003F0A6FC5D
:10155000002003F0A3FC002003F0A0FCEF2003F028
:101560009DFC112003F0A6FC782004F043F829200C
:1015700003F0A0FC03F02AB95848808846F604011D
:1015800088427CD1112003F095FC142004F032F83D
:10159000D02003F08FFC072003F080FC422003F0F2
:1015A0007DFC1D2003F07AFCD12003F083FC002099
:1015B00003F074FC1A2003F071FC092003F06EFCA8
:1015C000D22003F077FC012003F068FC222003F016
:1015D00065FCC02003F06EFC102003F05FFC3B2094
:1015E00003F05CFC002003F059FC022003F056FCE1
:1015F000112003F053FCC52003F05CFC032003F032
:101600004DFCC82003F056FC002003F047FC2520C9
:1016100003F044FC212003F041FC052003F03EFCD4
:10162000002003F03BFC0A2003F038FC652003F0A7
:1016300035FC252003F032FC772003F02FFC5020EE
:1016400003F02CFC0F2003F029FC002003F026FC03
:10165000F82003F02FFC012003F020FCFE2003F013
:1016600029FC002003F01AFC022003F017FC2020C4
:1016700003F020FC362003F01DFC082000E039E0D8
:1016800003F00CFC3A2003F015FC552003F006FC97
:101690002B2003F00FFC002003F000FC002003F0DF
:1016A000FDFB012003F0FAFB3F2003F0F7FB2A20AB
:1016B00003F000FC002003F0F1FB002003F0EEFB40
:1016C000012003F0EBFBDF2003F0E8FB782003F0C0
:1016D00091FF292003F0EEFB4CE700002C000020D6
:1016E0001C0100A0204C43442049443A25780D0AAF
:1016F00000000000FE48808845F21031884240F02A
:101700007C87ED2003F0D6FB012003F0C7FBFE2011
:1017100003F0C4FBEE2003F0CDFBDE2003F0BEFBA4
:10172000212003F0BBFBF12003F0C4FB012003F0F8
:10173000B5FBDF2003F0BEFB102003F0AFFBC4209D
:1017400003F0B8FB8F2003F0A9FBC62003F0B2FB27
:10175000002003F0A3FBE22003F0A0FBE22003F053
:101760009DFBE22003F09AFBBF2003F0A3FBAA201D
:1017700003F094FBB02003F09DFB0D2003F08EFBE3
:10178000002003F08BFB0D2003F088FB002003F00A
:1017900085FB112003F082FB002003F07FFB192062
:1017A00003F07CFB002003F079FB212003F076FBA3
:1017B000002003F073FB2D2003F070FB002003F0EA
:1017C0006DFB3D2003F06AFB002003F067FB5D200A
:1017D00003F064FB002003F061FB5D2003F05EFB7F
:1017E000002003F05BFBB12003F064FB802003F0DA
:1017F00055FB002003F052FB8B2003F04FFB002031
:1018000003F04CFB962003F049FB002003F046FB5D
:10181000B22003F04FFB002003F040FB002003F058
:101820003DFB022003F03AFB002003F037FB0320CE
:1018300003F034FB002003F031FBB32003F03AFB4C
:10184000002003F02BFB002003F028FB002003F016
:1018500025FB002003F022FB002003F01FFB0020EB
:1018600003F01CFB002003F019FB002003F016FB23
:10187000002003F013FB002003F010FB002003F016
:101880000DFB002003F00AFB002003F007FB002003
:1018900003F004FB002003F001FB002003F0FEFA3C
:1018A000002003F0FBFA002003F0F8FA002003F018
:1018B000F5FA002003F0F2FA002003F0EFFA00201E
:1018C00003F0ECFA002003F0E9FA002003F0E6FA56
:1018D000B42003F0EFFA8B2003F0E0FA002003F0CD
:1018E000DDFA962003F0DAFA002003F0D7FAA120FF
:1018F00003F0D4FA002003F0D1FAB52003F0DAFAAD
:10190000022003F0CBFA002003F0C8FA032003F012
:10191000C5FA002003F0C2FA042003F0BFFA002049
:1019200003F0BCFAB62003F0C5FA002003F0B6FAC3
:10193000002003F0B3FAB72003F0BCFA002003F054
:10194000ADFA002003F0AAFA3F2003F0A7FA002026
:1019500003F0A4FA5E2003F0A1FA002003F09EFA3F
:10196000642003F09BFA002003F098FA8C2003F027
:1019700095FA002003F092FAAC2003F08FFA0020D1
:1019800003F08CFADC2003F089FA002003F086FAD9
:10199000702003F083FA002003F080FA902003F017
:1019A0007DFA002003F07AFAEB2003F077FA0020AA
:1019B00003F074FADC2003F071FA002003F06EFAF1
:1019C000B82003F077FA002003F068FA002003F053
:1019D00065FA002003F062FA002003F05FFA0020AD
:1019E00003F05CFA002003F059FA002003F056FAE5
:1019F000002003F053FABA2003F05CFA242003F02D
:101A00004DFA002003F04AFA002003F047FA0020C4
:101A100003F044FAC12003F04DFA202003F03EFA0F
:101A2000002003F03BFA542003F038FA002003F0C2
:101A300035FAFF2003F032FA002003F02FFAC2201B
:101A400003F038FA0A2003F029FA002003F026FAFE
:101A5000042003F023FA002003F020FAC32003F04F
:101A600029FA3C2003F01AFA002003F017FA3A2072
:101A700003F014FA002003F011FA392003F00EFAF3
:101A8000002003F00BFA372003F008FA002003F0DF
:101A900005FA3C2003F002FA002003F0FFF936209B
:101AA00003F0FCF9002003F0F9F9322003F0F6F915
:101AB000002003F0F3F92F2003F0F0F9002003F0E9
:101AC000EDF92C2003F0EAF9002003F0E7F92920D2
:101AD00003F0E4F9002003F0E1F9262003F0DEF939
:101AE000002003F0DBF9242003F0D8F9002001E006
:101AF0002C00002003F0D2F9242003F0CFF90020BD
:101B000003F0CCF9232003F0C9F9002003F0C6F953
:101B10003C2003F0C3F9002003F0C0F9362003F0A5
:101B2000BDF9002003F0BAF9322003F0B7F9002024
:101B300003F0B4F92F2003F0B1F9002003F0AEF95F
:101B40002C2003F0ABF9002003F0A8F9292003F0C2
:101B5000A5F9002003F0A2F9262003F09FF9002048
:101B600003F09CF9242003F099F9002003F096F982
:101B7000242003F093F9002003F090F9232003F0D0
:101B80008DF9002003F08AF9C42003F093F9622054
:101B900003F084F9002003F081F9052003F07EF9B9
:101BA000002003F07BF9842003F078F9002003F093
:101BB00075F9F02003F072F9002003F06FF9182096
:101BC00003F06CF9002003F069F9A42003F066F932
:101BD000002003F063F9182003F060F9002003F0FF
:101BE0005DF9502003F05AF9002003F057F90C205A
:101BF00003F054F9002003F051F9172003F04EF9D7
:101C0000002003F04BF9952003F048F9002003F081
:101C100045F9F32003F042F9002003F03FF9E620F4
:101C200003F03CF9002003F039F9C52003F042F934
:101C3000322003F033F9002003F030F9442003F0A0
:101C40002DF9002003F02AF9652003F027F9002080
:101C500003F024F9762003F021F9002003F01EF9A7
:101C6000882003F01BF9002003F018F9C62003F0C8
:101C700021F9202003F012F9002003F00FF91720BA
:101C800003F00CF9002003F009F9012003F006F934
:101C9000002003F003F9C72003F00CF9002003F043
:101CA000FDF8002003F0FAF8002003F0F7F8002018
:101CB00003F0F4F8C82003F0FDF8002003F0EEF87C
:101CC000002003F0EBF8002003F0E8F8002003F018
:101CD000E5F8C92003F0EEF8002003F0DFF800205B
:101CE00003F0DCF8002003F0D9F8002003F0D6F868
:101CF000002003F0D3F8002003F0D0F8002003F018
:101D0000CDF8002003F0CAF8002003F0C7F8002047
:101D100003F0C4F8002003F0C1F8002003F0BEF87F
:101D2000002003F0BBF8002003F0B8F8002003F017
:101D3000B5F8002003F0B2F8E02003F0BBF816205D
:101D400003F0ACF8002003F0A9F81C2003F0A6F87B
:101D5000002003F0A3F8212003F0A0F8002003F0F6
:101D60009DF8362003F09AF8002003F097F84620FB
:101D700003F094F8002003F091F8522003F08EF85D
:101D8000002003F08BF8642003F088F8002003F0B3
:101D900085F87A2003F082F8002003F07FF88B208A
:101DA00003F07CF8002003F079F8992003F076F82E
:101DB000002003F073F8A82003F070F8002003F06F
:101DC0006DF8B92003F06AF8002003F067F8C4202A
:101DD00003F064F8002003F061F8CA2003F05EF815
:101DE000002003F05BF8D22003F058F8002003F045
:101DF00055F8D92003F052F8002003F04FF8E02006
:101E000003F04CF8002003F049F8F32003F046F803
:101E1000002003F043F8E12003F04CF8162003F013
:101E20003DF8002003F03AF81C2003F037F80020BA
:101E300003F034F8222003F031F8002003F02EF8EC
:101E4000362003F02BF8002003F028F8452003F09B
:101E500025F8002003F022F8522003F01FF800209C
:101E600003F01CF8642003F019F8002003F016F8C2
:101E70007A2003F013F8002003F010F88B2003F011
:101E80000DF8002003F00AF8992003F007F800206D
:101E900003F004F8A82003F001F8002002F0FEFF90
:101EA000B92002F0FBFF002002F0F8FFC42002F08E
:101EB000F5FF002002F0F2FFCA2002F0EFFF002041
:101EC00002F0ECFFD22002F0E9FF002002F0E6FF72
:101ED000D82002F0E3FF002002F0E0FFE02002F053
:101EE000DDFF002002F0DAFFF32002F0D7FF002030
:101EF00002F0D4FFE22002F0DDFF052002F0CEFF69
:101F0000002002F0CBFF0B2002F0C8FF002002F0FF
:101F1000C5FF1B2002F0C2FF002002F0BFFF3420EB
:101F200002F0BCFF002002F0B9FF442002F0B6FF2F
:101F3000002002F0B3FF4F2002F0B0FF002002F0BB
:101F4000ADFF612002F0AAFF002002F0A7FF792078
:101F500002F0A4FF002002F0A1FF882002F09EFF03
:101F6000002002F09BFF972002F098FF002002F073
:101F700095FFA62002F092FF002002F08FFFB7200D
:101F800002F08CFF002002F089FFC22002F086FFE1
:101F9000002002F083FFC72002F080FF002002F043
:101FA0007DFFD12002F07AFF002002F077FFD620DB
:101FB00002F074FF002002F071FFDD2002F06EFFDE
:101FC000002002F06BFFF32002F068FF002002F017
:101FD00065FFE32002F06EFF052002F05FFF0020A6
:101FE00002F05CFF0A2002F059FF002002F056FFC9
:101FF0001C2002F053FF002002F050FF332002F0BB
:102000004DFF002002F04AFF442002F047FF00206D
:1020100002F044FF502002F041FF002002F03EFF9A
:10202000622002F03BFF002002F038FF782002F02F
:1020300035FF002002F032FF882002F02FFF002041
:1020400002F02CFF972002F029FF002002F026FF6B
:10205000A62002F023FF002002F020FFB72002F0AC
:102060001DFF002002F01AFFC22002F017FF00201F
:1020700002F014FFC72002F011FF002002F00EFF53
:10208000D12002F00BFF002002F008FFD52002F063
:1020900005FF002002F002FFDD2002F0FFFE00201D
:1020A00002F0FCFEF32002F0F9FE002002F0F6FE42
:1020B000E42002F0FFFE012002F0F0FE002002F01A
:1020C000EDFE012002F0EAFE002002F0E7FE022011
:1020D00002F0E4FE002002F0E1FE2A2002F0DEFE23
:1020E000002002F0DBFE3C2002F0D8FE002002F0CF
:1020F000D5FE4B2002F0D2FE002002F0CFFE5D2084
:1021000002F0CCFE002002F0C9FE742002F0C6FEF0
:10211000002002F0C3FE842002F0C0FE002002F086
:10212000BDFE932002F0BAFE002002F0B7FEA2200E
:1021300002F0B4FE002002F0B1FEB32002F0AEFEC9
:10214000002002F0ABFEBE2002F0A8FE002002F04C
:10215000A5FEC42002F0A2FE002002F09FFECD20CA
:1021600002F09CFE002002F099FED32002F096FEC1
:10217000002002F093FEDD2002F090FE002002F02D
:102180008DFEF32002F08AFE002002F087FEE5209B
:1021900002F090FE002002F081FE002002F07EFEA0
:1021A000002002F07BFE002002F078FE022002F008
:1021B00075FE002002F072FE292002F06FFE002062
:1021C00002F06CFE3C2002F069FE002002F066FE88
:1021D0004B2002F063FE002002F060FE5D2002F062
:1021E0005DFE002002F05AFE742002F057FE00202F
:1021F00002F054FE842002F051FE002002F04EFE58
:10220000932002F04BFE002002F048FEA22002F0D4
:1022100045FE002002F042FEB32002F03FFE002007
:1022200002F03CFEBE2002F039FE002002F036FE35
:10223000C42002F033FE002002F030FECD2002F078
:102240002DFE002002F02AFED32002F027FE0020FF
:1022500002F024FEDC2002F021FE002002F01EFE2F
:10226000F32002F01BFE002002F018FEE62002F030
:1022700021FE112002F012FE002002F00FFE342099
:1022800002F00CFE002002F009FE562002F006FECD
:10229000002002F003FE762002F000FE002002F093
:1022A000FDFD772002F0FAFD002002F0F7FD662028
:1022B00002F0F4FD002002F0F1FD882002F0EEFDB6
:1022C000002002F0EBFD992002F0E8FD002002F072
:1022D000E5FDBB2002F0E2FD002002F0DFFD9920C9
:1022E00002F0DCFD002002F0D9FD662002F0D6FDF0
:1022F000002002F0D3FD552002F0D0FD002002F0B6
:10230000CDFD552002F0CAFD002002F0C7FD45209A
:1023100002F0C4FD002002F0C1FD432002F0BEFD2A
:10232000002002F0BBFD442002F0B8FD002002F0C6
:10233000B5FDE72002F0BEFD322002F0AFFD002027
:1023400002F0ACFD552002F0A9FD002002F0A6FD30
:10235000762002F0A3FD002002F0A0FD662002F02E
:102360009DFD002002F09AFD672002F097FD0020FD
:1023700002F094FD672002F091FD002002F08EFD36
:10238000872002F08BFD002002F088FD992002F0EA
:1023900085FD002002F082FDBB2002F07FFD0020C1
:1023A00002F07CFD992002F079FD002002F076FD1C
:1023B000772002F073FD002002F070FD442002F04F
:1023C0006DFD002002F06AFD562002F067FD00203E
:1023D00002F064FD232002F061FD002002F05EFDAA
:1023E000332002F05BFD002002F058FD452002F092
:1023F00055FD002002F052FDE82002F05BFD0020B8
:1024000002F04CFD002002F049FD992002F046FD4B
:10241000002002F043FD872002F040FD002002F082
:102420003DFD882002F03AFD002002F037FD7720C4
:1024300002F034FD002002F031FD662002F02EFD96
:10244000002002F02BFD882002F028FD002002F081
:1024500025FDAA2002F022FD002002F01FFDBB2076
:1024600002F01CFD002002F019FD992002F016FD7B
:10247000002002F013FD662002F010FD002002F0A3
:102480000DFD552002F00AFD002002F007FD552049
:1024900002F004FD002002F001FD442002F0FEFCE9
:1024A000002002F0FBFC442002F0F8FC002002F0C7
:1024B000F5FC552002F0F2FC002002F0EFFCE920D0
:1024C00002F0F8FCAA2002F0E9FC002002F0E6FC91
:1024D000002002F0E3FC002002F0E0FC002002F00B
:1024E000E9FCAA2002F0DAFCCF2002F0E3FC002095
:1024F00002F0D4FC002002F0D1FC002002F0CEFC5F
:10250000002002F0CBFC002002F0C8FC002002F00A
:10251000C5FC002002F0C2FC002002F0BFFC00203D
:1025200002F0BCFC002002F0B9FC002002F0B6FC76
:10253000002002F0B3FC002002F0B0FC002002F00A
:10254000ADFC002002F0AAFC002002F0A7FC002055
:1025500002F0A4FCF02002F0ADFC002002F09EFC92
:10256000502002F09BFC002002F098FC002002F0BA
:1025700095FC002002F092FCF32002F09BFC00206E
:1025800002F08CFCF92002F095FC062002F086FC9B
:10259000102002F083FC292002F080FC002002F0D1
:1025A0007DFC3A2002F086FC552002F077FC1120D9
:1025B00002F080FC642003F01DF8292002F07AFC70
:1025C000352002F077FC002002F068FC512002F078
:1025D00071FCFF2002F062FC532002F06BFC2C2007
:1025E00002F05CFC552002F065FC822002F056FCF3
:1025F0002C2002F05FFC02F0E9B8FE48808845F22A
:10260000105188427ED155214FF4704002F068FC91
:10261000AA214FF2010002F063FC52214FF20200A6
:1026200002F05EFC08214FF2030002F059FC012188
:102630004FF2040002F054FC0D214FF4304002F040
:102640004FFC0D214BF2010002F04AFC0D214BF230
:10265000020002F045FC34214FF4364002F040FC09
:1026600034214BF2016002F03BFC34214BF202605A
:1026700002F036FC0D214FF4314002F031FC0D2107
:102680004BF2011002F02CFC0D214BF2021002F073
:1026900027FC34214FF4374002F022FC34214BF266
:1026A000017002F01DFC34214BF2027002F018FCA4
:1026B00000214FF4324002F013FC00214BF20120C4
:1026C00002F00EFC00214BF2022002F009FC242152
:1026D0004FF4384002F004FC24214BF6010002F0D4
:1026E000FFFB24214BF6020002F0FAFB01214FF41C
:1026F0003F4002F0F5FB0F214FF4334002F0F0FBB6
:102700000F2100E0FEE34BF2013002F0E9FB0F2164
:102710004BF2023002F0E4FB34214FF4394002F076
:10272000DFFB34214BF6011002F0DAFB34214BF6CB
:10273000021002F0D5FB08214FF4354002F0D0FB27
:1027400008214BF2015002F0CBFB08214BF2025062
:1027500002F0C6FB03214FF4424002F0C1FB2421EA
:102760004FF43A4002F0BCFB24214BF6012002F06A
:10277000B7FB24214BF6022002F0B2FB00214FF4FC
:102780003C4002F0ADFB78214BF6014002F0A8FB83
:1027900000214BF6024002F0A3FB00214FF43D4024
:1027A00002F09EFB78214BF6015002F099FB0021CC
:1027B0004BF6025002F094FB00214FF43E4002F031
:1027C0008FFB64214BF6016002F08AFB00214FF47D
:1027D000514002F085FB33214DF2011002F080FBE5
:1027E00000214DF2021002F07BFB34214DF2031068
:1027F00002F076FB00214DF2041002F071FB3A2149
:102800004DF2051002F06CFB00214DF2061002F0B3
:1028100067FB4A214DF2071002F062FB00214DF2E6
:10282000081002F05DFB5C214DF2091002F058FB2C
:1028300000214DF20A1002F053FB81214DF20B10E2
:1028400002F04EFB00214DF20C1002F049FBA621D4
:102850004DF20D1002F044FB00214DF20E1002F07B
:102860003FFBE5214DF20F1002F03AFB01214DF242
:10287000101002F035FB13214DF2111002F030FB65
:1028800001214DF2121002F02BFB54214DF21310D6
:1028900002F026FB01214DF2141002F021FB8221EF
:1028A0004DF2151002F01CFB01214DF2161002F042
:1028B00017FBCA214DF2171002F012FB02214DF254
:1028C000181002F00DFB00214DF2191002F008FB68
:1028D00002214DF21A1002F003FB01214DF21B10F0
:1028E00002F0FEFA02214DF21C1002F0F9FA342136
:1028F0004DF21D1002F0F4FA02214DF21E1002F00A
:10290000EFFA67214DF21F1002F0EAFA02214DF2B0
:10291000201002F0E5FA84214DF2211002F0E0FAD5
:1029200002214DF2221002F0DBFAA4214DF2231015
:1029300002F0D6FA02214DF2241002F0D1FAB721AA
:102940004DF2251002F0CCFA02214DF2261002F0D1
:10295000C7FACF214DF2271002F0C2FA02214DF240
:10296000281002F0BDFADE214DF2291002F0B8FA6B
:1029700002214DF22A1002F0B3FAF2214DF22B108F
:1029800002F0AEFA02214DF22C1002F0A9FAFE215B
:102990004DF22D1002F0A4FA03214DF22E1002F098
:1029A0009FFA10214DF22F1002F09AFA03214DF2F6
:1029B000301002F095FA33214DF2311002F090FA06
:1029C00003214DF2321002F08BFA6D214DF23310DB
:1029D00002F086FA00214FF4524002F081FA3321CE
:1029E0004DF2012002F07CFA00214DF2022002F0AB
:1029F00077FA01E02C00002034214DF2032002F090
:102A00006FFA00214DF2042002F06AFA3A214DF2E9
:102A1000052002F065FA00214DF2062002F060FA6E
:102A20004A214DF2072002F05BFA00214DF2082006
:102A300002F056FA5C214DF2092002F051FA002111
:102A40004DF20A2002F04CFA81214DF20B2002F0E7
:102A500047FA00214DF20C2002F042FAA6214DF275
:102A60000D2002F03DFA00214DF20E2002F038FA5E
:102A7000E5214DF20F2002F033FA01214DF2102032
:102A800002F02EFA13214DF2112002F029FA012151
:102A90004DF2122002F024FA54214DF2132002F0DC
:102AA0001FFA01214DF2142002F01AFA82214DF290
:102AB000152002F015FA01214DF2162002F010FA4D
:102AC000CA214DF2172002F00BFA02214DF2182014
:102AD00002F006FA00214DF2192002F001FA02215B
:102AE0004DF21A2002F0FCF901214DF21B2002F0F8
:102AF000F7F902214DF21C2002F0F2F934214DF2D7
:102B00001D2002F0EDF902214DF21E2002F0E8F93D
:102B100067214DF21F2002F0E3F902214DF220203F
:102B200002F0DEF984214DF2212002F0D9F90221D0
:102B30004DF2222002F0D4F9A4214DF2232002F01C
:102B4000CFF902214DF2242002F0CAF9B7214DF24B
:102B5000252002F0C5F902214DF2262002F0C0F92D
:102B6000CF214DF2272002F0BBF902214DF228209F
:102B700002F0B6F9DE214DF2292002F0B1F902216E
:102B80004DF22A2002F0ACF9F2214DF22B2002F096
:102B9000A7F902214DF22C2002F0A2F9FE214DF2FC
:102BA0002D2002F09DF903214DF22E2002F098F91C
:102BB00010214DF22F2002F093F903214DF2302025
:102BC00002F08EF933214DF2312002F089F9032110
:102BD0004DF2322002F084F96D214DF2332002F0E3
:102BE0007FF900214FF4534002F07AF933214DF27E
:102BF000013002F075F900214DF2023002F070F957
:102C000034214DF2033002F06BF900214DF2043013
:102C100002F066F93A214DF2053002F061F9002127
:102C20004DF2063002F05CF94A214DF2073002F015
:102C300057F900214DF2083002F052F95C214DF2B3
:102C4000093002F04DF900214DF20A3002F048F946
:102C500081214DF20B3002F043F900214DF20C308E
:102C600002F03EF9A6214DF20D3002F039F90021B3
:102C70004DF20E3002F034F9E5214DF20F3002F042
:102C80002FF901214DF2103002F02AF913214DF2F3
:102C9000113002F025F901214DF2123002F020F935
:102CA00054214DF2133002F01BF901214DF2143082
:102CB00002F016F982214DF2153002F011F90121CE
:102CC0004DF2163002F00CF9CA214DF2173002F025
:102CD00007F902214DF2183002F002F900214DF2FD
:102CE000193002F0FDF802214DF21A3002F0F8F826
:102CF00001214DF21B3002F0F3F802214DF21C309D
:102D000002F0EEF834214DF21D3002F0E9F8022114
:102D10004DF21E3002F0E4F867214DF21F3002F050
:102D2000DFF802214DF2203002F0DAF884214DF272
:102D3000213002F0D5F802214DF2223002F0D0F815
:102D4000A4214DF2233002F0CBF802214DF22430C1
:102D500002F0C6F8B7214DF2253002F0C1F8022189
:102D60004DF2263002F0BCF8CF214DF2273002F0B0
:102D7000B7F802214DF2283002F0B2F8DE214DF210
:102D8000293002F0ADF802214DF22A3002F0A8F805
:102D9000F2214DF22B3002F0A3F802214DF22C303B
:102DA00002F09EF8FE214DF22D3002F099F8032139
:102DB0004DF22E3002F094F810214DF22F3002F037
:102DC0008FF803214DF2303002F08AF833214DF2B2
:102DD000313002F085F803214DF2323002F080F8F4
:102DE0006D214DF2333002F07BF800214FF4544056
:102DF00002F076F833214DF2014002F071F8002123
:102E00004DF2024002F06CF834214DF2034002F022
:102E100067F800214DF2044002F062F83A214DF2C9
:102E2000054002F05DF800214DF2064002F058F82E
:102E30004A214DF2074002F053F800214DF20840BC
:102E400002F04EF85C214DF2094002F049F80021F1
:102E50004DF20A4002F044F881214DF20B4002F09D
:102E60003FF800214DF20C4002F03AF8A6214DF255
:102E70000D4002F035F800214DF20E4002F030F81E
:102E8000E5214DF20F4002F02BF801214DF21040E8
:102E900002F026F813214DF2114002F021F8012131
:102EA0004DF2124002F01CF854214DF2134002F092
:102EB00017F801214DF2144002F012F882214DF270
:102EC000154002F00DF801214DF2164002F008F80D
:102ED000CA214DF2174002F003F802214DF21840CA
:102EE00001F0FEFF00214DF2194001F0F9FF02212F
:102EF0004DF21A4001F0F4FF01214DF21B4001F0A8
:102F0000EFFF00E004E302214DF21C4001F0E8FF76
:102F100034214DF21D4001F0E3FF02214DF21E402D
:102F200001F0DEFF67214DF21F4001F0D9FF0221C1
:102F30004DF2204001F0D4FF84214DF2214001F0F8
:102F4000CFFF02214DF2224001F0CAFFA4214DF231
:102F5000234001F0C5FF02214DF2244001F0C0FFE3
:102F6000B7214DF2254001F0BBFF02214DF2264072
:102F700001F0B6FFCF214DF2274001F0B1FF022151
:102F80004DF2284001F0ACFFDE214DF2294001F066
:102F9000A7FF02214DF22A4001F0A2FFF2214DF2DB
:102FA0002B4001F09DFF02214DF22C4001F098FFD3
:102FB000FE214DF22D4001F093FF03214DF22E40F2
:102FC00001F08EFF10214DF22F4001F089FF032107
:102FD0004DF2304001F084FF33214DF2314001F0D9
:102FE0007FFF03214DF2324001F07AFF6D214DF257
:102FF000334001F075FF00214FF4554001F070FFA0
:1030000033214DF2015001F06BFF00214DF20250CF
:1030100001F066FF34214DF2035001F061FF002101
:103020004DF2045001F05CFF3A214DF2055001F0E1
:1030300057FF00214DF2065001F052FF4A214DF298
:10304000075001F04DFF00214DF2085001F048FFFC
:103050005C214DF2095001F043FF00214DF20A506E
:1030600001F03EFF81214DF20B5001F039FF0021AC
:103070004DF20C5001F034FFA6214DF20D5001F03D
:103080002FFF00214DF20E5001F02AFFE5214DF2F5
:103090000F5001F025FF01214DF2105001F020FFEB
:1030A00013214DF2115001F01BFF01214DF212507E
:1030B00001F016FF54214DF2135001F011FF0121D0
:1030C0004DF2145001F00CFF82214DF2155001F029
:1030D00007FF01214DF2165001F002FFCA214DF207
:1030E000175001F0FDFE02214DF2185001F0F8FEDC
:1030F00000214DF2195001F0F3FE02214DF21A5059
:1031000001F0EEFE01214DF21B5001F0E9FE02211B
:103110004DF21C5001F0E4FE34214DF21D5001F03F
:10312000DFFE02214DF21E5001F0DAFE67214DF262
:103130001F5001F0D5FE02214DF2205001F0D0FECB
:1031400084214DF2215001F0CBFE02214DF222509C
:1031500001F0C6FEA4214DF2235001F0C1FE022170
:103160004DF2245001F0BCFEB7214DF2255001F084
:10317000B7FE02214DF2265001F0B2FECF214DF2F2
:10318000275001F0ADFE02214DF2285001F0A8FEBB
:10319000DE214DF2295001F0A3FE02214DF22A500A
:1031A00001F09EFEF2214DF22B5001F099FE02211A
:1031B0004DF22C5001F094FEFE214DF22D5001F005
:1031C0008FFE03214DF22E5001F08AFE10214DF2A8
:1031D0002F5001F085FE03214DF2305001F080FEAA
:1031E00033214DF2315001F07BFE03214DF232507C
:1031F00001F076FE6D214DF2335001F071FE002199
:103200004FF4564001F06CFE33214DF2016001F0A5
:1032100067FE00214DF2026001F062FE34214DF2A2
:10322000036001F05DFE00214DF2046001F058FEE4
:103230003A214DF2056001F053FE00214DF2066087
:1032400001F04EFE4A214DF2076001F049FE0021D7
:103250004DF2086001F044FE5C214DF2096001F07E
:103260003FFE00214DF20A6001F03AFE81214DF24D
:103270000B6001F035FE00214DF20C6001F030FED4
:10328000A6214DF20D6001F02BFE00214DF20E60E3
:1032900001F026FEE5214DF20F6001F021FE012133
:1032A0004DF2106001F01CFE13214DF2116001F08F
:1032B00017FE01214DF2126001F012FE54214DF271
:1032C000136001F00DFE01214DF2146001F008FEC3
:1032D00082214DF2156001F003FE01214DF21660CE
:1032E00001F0FEFDCA214DF2176001F0F9FD022147
:1032F0004DF2186001F0F4FD00214DF2196001F06B
:10330000EFFD02214DF21A6001F0EAFD01214DF2BC
:103310001B6001F0E5FD02214DF21C6001F0E0FDB3
:1033200034214DF21D6001F0DBFD02214DF21E60E3
:1033300001F0D6FD67214DF21F6001F0D1FD0221A1
:103340004DF2206001F0CCFD84214DF2216001F0AE
:10335000C7FD02214DF2226001F0C2FDA4214DF211
:10336000236001F0BDFD02214DF2246001F0B8FDA3
:10337000B7214DF2256001F0B3FD02214DF2266028
:1033800001F0AEFDCF214DF2276001F0A9FD022131
:103390004DF2286001F0A4FDDE214DF2296001F01C
:1033A0009FFD02214DF22A6001F09AFDF2214DF2BB
:1033B0002B6001F095FD02214DF22C6001F090FD93
:1033C000FE214DF22D6001F08BFD03214DF22E60A8
:1033D00001F086FD10214DF22F6001F081FD0321E7
:1033E0004DF2306001F07CFD33214DF2316001F08F
:1033F00077FD03214DF2326001F072FD6D214DF237
:10340000336001F06DFD55214FF4704001F068FD0F
:10341000AA214FF2010001F063FD52214FF2020098
:1034200001F05EFD08214FF2030001F059FD00217B
:103430004FF2040001F054FDCC214FF4314001F073
:103440004FFD00214BF2011001F04AFD05214FF420
:10345000364001F045FD70214FF4374001F040FD4A
:1034600070214BF2017001F03BFD01214FF4384017
:1034700001F036FD03214BF6010001F031FD03217F
:103480004BF6020001F02CFD03214BF6030001F086
:1034900027FD02214FF43C4001F022FD00214BF6B4
:1034A000014001F01DFD00214BF6024001F018FD26
:1034B000D0214FF4494001F013FD02214CF60110D8
:1034C00001F00EFD50214CF6021001F009FD5021D3
:1034D0004CF6031001F004FD50214CF6041001F0ED
:1034E000FFFC00214FF4545001F0FAFC55214FF439
:1034F000685001F0F5FC4FF4885001F0DBFC7820B7
:1035000002F094F84FF4245001F0D4FC01F05EB9BD
:10351000FE48808849F2253188427DD147F6F00186
:10352000E52001F0DDFC4FF48071012001F0D8FCB2
:103530004FF4E061022001F0D3FC41F2300103209E
:1035400001F0CEFC0021042001F0CAFC40F202216F
:10355000082001F0C5FC0021092001F0C1FC002178
:103560000A2001F0BDFC00210C2001F0B9FC002173
:103570000D2001F0B5FC00210F2001F0B1FC00216D
:10358000102001F0ADFC0721112001F0A9FC002161
:10359000122001F0A5FC0021132001F0A1FC002164
:1035A000072001F09DFC41F29061102001F098FC91
:1035B00040F22721112001F093FC9D21122001F0FF
:1035C0008FFC4FF4C851132001F08AFC25212920DB
:1035D00001F086FC0D212B2001F082FC0721302018
:1035E00001F07EFC40F20331312001F079FC03212F
:1035F000322001F075FC40F20621352001F070FC0C
:103600000821362001F06CFC40F20641372001F021
:1036100067FC4FF4417100E058E0382001F060FC95
:103620000721392001F05CFC40F202613C2001F0EE
:1036300057FC08213D2001F053FC0021502001F0EF
:103640004FFCEF21512001F04BFC0021522001F0F2
:1036500047FC40F23F11532001F042FC4FF4274158
:10366000602001F03DFC0121612001F039FC0021C6
:103670006A2001F035FC0021802001F031FC00219E
:10368000812001F02DFC0021822001F029FC002185
:10369000832001F025FC0021842001F021FC002181
:1036A000852001F01DFC1021902001F019FC4FF441
:1036B000C061922001F014FC40F23311072001F0A8
:1036C0000FFC2221002001F00BFC1FE78F488088AF
:1036D00049F2283188427DD141F28F01EC2001F07E
:1036E000FFFB41F23421EF2001F0FAFB4FF480712F
:1036F000012001F0F5FB4FF4E061022001F0F0FB46
:1037000041F23001032001F0EBFB0021042001F025
:10371000E7FB40F20221082001F0E2FB0021092032
:1037200001F0DEFB00210A2001F0DAFB01210C2070
:1037300001F0D6FB00210D2001F0D2FB00210F206B
:1037400001F0CEFB0021102001F0CAFB072111205F
:1037500001F0C6FB0021122001F0C2FB0021132062
:1037600001F0BEFB0121072001F0BAFB322001F07D
:1037700041FF41F29041102001F0B2FB40F22721BD
:10378000112001F0ADFB322001F034FF8A2112201C
:1037900001F0A6FB322001F02DFF4FF4D051132091
:1037A00001F09EFB0621292001F09AFB0D212B2020
:1037B00001F096FB322001F01DFF0021202001F0D6
:1037C0008FFB0021212001F08BFB322001F012FF42
:1037D000002100E075E0302001F082FB40F204613E
:1037E000312001F07DFB40F20531322001F078FB01
:1037F0000021352001F074FB40F60941362001F02C
:103800006FFB4FF40171372001F06AFB40F2013188
:10381000382001F065FB40F20771392001F060FBB0
:1038200000213C2001F05CFB40F60A213D2001F024
:1038300057FB322001F0DEFE0021502001F050FB4A
:10384000EF21512001F04CFB0021522001F048FBF8
:1038500040F23F11532001F043FB4FF42741602019
:1038600001F03EFB0121612001F03AFB00216A20BA
:1038700001F036FB0021802001F032FB0021812085
:1038800001F02EFB0021822001F02AFB0021832081
:1038900001F026FB0021842001F022FB002185207D
:1038A00001F01EFB1021902001F01AFB4FF4C061C3
:1038B000922001F015FB40F23311072001F010FBBC
:1038C00024E61248808849F2203188427ED10021C6
:1038D000084601F005FB4FF48071012001F000FB68
:1038E0004FF4E061022001F0FBFA41F230010320C5
:1038F00001F0F6FA0021042001F0F2FA40F2022170
:10390000082001F0EDFA0021092001E02C00002040
:1039100001F0E6FA00210A2001F0E2FA01210C2070
:1039200001F0DEFA00210D2001F0DAFA00210F206B
:1039300001F0D6FA322001F05DFE40F201110720BD
:1039400001F0CEFA322001F055FE4FF486511020DE
:1039500001F0C6FA0721112001F0C2FA4FF4887174
:10396000122001F0BDFA4FF43061132001F0B8FAD3
:103970000021292001F0B4FA44F210012B2001F0BB
:10398000AFFA0021502001F0ABFAEF21512001F0F5
:10399000A7FA0021522001F0A3FA40F23F11532070
:1039A00001F09EFA4FF41C51602001F099FA0121B8
:1039B000612001F095FA00216A2001F091FA0021BE
:1039C000802001F08DFA0021812000E030E001F03C
:1039D00087FA0021822001F083FA0021832001F080
:1039E0007FFA0021842001F07BFA0021852001F07C
:1039F00077FA1021902001F073FA0021922001F053
:103A00006FFA0121932001F06BFA4FF48871952031
:103A100001F066FA0021972001F062FA0021982057
:103A200001F05EFA40F27311072001F059FA6DE5DA
:103A3000FE48808849F2313188427DD141F214013B
:103A4000E72001F04DFA4FF48071012001F048FAAF
:103A50004FF40071022001F043FA41F238010320D3
:103A600001F03EFA40F20221082001F039FA00216B
:103A7000092001F035FA00210A2001F031FA002175
:103A80000C2001F02DFA00210D2001F029FA00216F
:103A90000F2001F025FA0021102001F021FA072162
:103AA000112001F01DFA0021122001F019FA002165
:103AB000132001F015FAC82001F09CFD41F290613D
:103AC000102001F00DFA40F22721112001F008FA30
:103AD000322001F08FFD0C21122001F001FA32207A
:103AE00001F088FD4FF40061132001F0F9F9112174
:103AF000292001F0F5F90B212B2001F0F1F93220FA
:103B000001F078FD0021202001F0EAF940F23F1198
:103B1000212001F0E5F90021302001F0E1F94FF416
:103B20008371312001F0DCF90021322001F0D8F955
:103B30004FF40171352000E064E001F0D1F941F269
:103B40000A61362001F0CCF940F20771372001F00C
:103B5000C7F94FF48371382001F0C2F940F20771C0
:103B6000392001F0BDF940F202413C2001F0B8F9E2
:103B700040F60F413D2001F0B3F90021502001F043
:103B8000AFF9EF21512001F0ABF90021522001F0F3
:103B9000A7F940F23F11532001F0A2F94FF41C5154
:103BA000602001F09DF90121612001F099F90021C7
:103BB0006A2001F095F90021802001F091F900219F
:103BC000812001F08DF90021822001F089F9002186
:103BD000832001F085F90021842001F081F9002182
:103BE000852001F07DF91021902001F079F94FF442
:103BF000C061922001F074F940F23311072001F006
:103C00006FF983E48948808845F2084188427DD174
:103C10004FF48071012001F063F94FF4E06102205C
:103C200001F05EF941F23001032001F059F9002161
:103C3000042001F055F940F20721082001F050F965
:103C40000021092001F04CF900210A2001F048F977
:103C500000210C2001F044F900210D2001F040F971
:103C600000210F2001F03CF9142001F0C3FC41F2C7
:103C7000B061102001F034F90121112001F030F978
:103C80000121172001F02CF94FF49C71122001F052
:103C900027F94FF40061132001F022F909212920AE
:103CA00001F01EF909212A2001F01AF90021A420AF
:103CB00001F016F90021502001F012F9EF215120F6
:103CC00001F00EF90021522001F00AF940F23F11F3
:103CD000532001F005F94FF41C51602001F000F968
:103CE0000121612001F0FCF800216A2001F0F8F8C0
:103CF0000021802001F0F4F80021812001F0F0F88B
:103D00000021822001F0ECF8002100E024E0832073
:103D100001F0E6F80021842001F0E2F8002185207E
:103D200001F0DEF81321902001F0DAF80021922052
:103D300001F0D6F80321932001F0D2F84FF48871F6
:103D4000952001F0CDF840F27311072001F0C8F87A
:103D5000322001F04FFCB8E43448808841F205512C
:103D600088427DD10021072001F0BAF8322001F00D
:103D700041FC4FF48E71122001F0B2F80121A42011
:103D800001F0AEF80F21082001F0AAF808210A205E
:103D900001F0A6F808210D2001F0A2F840F2077109
:103DA000302001F09DF80721312001F099F840F210
:103DB0000361322001F094F84FF4E061332001F008
:103DC0008FF840F20221342001F08AF802213520D8
:103DD00001F086F841F60F71362001F081F840F2CB
:103DE0000771372001F07CF80021382001F078F8C5
:103DF0000021392001F074F840F207713A2001F0F7
:103E00006FF800213B2001F06BF807213C2001F006
:103E100067F800213D2001F063F8322001F0EAFB51
:103E20000121072001F05CF8012101E02C000020B5
:103E3000172001F055F8322001F0DCFB4FF4BD51A2
:103E4000102001F04DF840F21721112001F048F840
:103E50004FF48F71122001F043F84FF4706100E0CD
:103E600098E0132001F03CF800212A2001F038F8F6
:103E70000A21292001F034F84FF49F71122001F03B
:103E80002FF80021502001F02BF8EF21512001F0F4
:103E900027F80021522001F023F840F23F1153206F
:103EA00001F01EF84FF41C51602001F019F80121B7
:103EB000612001F015F800216A2001F011F80021BD
:103EC000802001F00DF80021812001F009F8002187
:103ED000822001F005F80021832001F001F8002183
:103EE000842000F0FDFF0021852000F0F9FF132160
:103EF000902000F0F5FF4FF44071922000F0F0FFA9
:103F00000521932000F0ECFF0021952000F0E8FF50
:103F10000021972000F0E4FF0021982000F0E0FF4E
:103F20004FF48071012000F0DBFF4FF4E0610220CC
:103F300000F0D6FF41F23801032000F0D1FF00214C
:103F4000042000F0CDFF00210C2000F0C9FF00216B
:103F50000F2000F0C5FF0021202000F0C1FF00214C
:103F6000212000F0BDFF2121072000F0B9FF14201F
:103F700001F040FB6121072000F0B2FF142001F0A6
:103F800039FB40F27311072000F0AAFF142001F062
:103F900031FB95E4FE4880884BF2055188427CD184
:103FA0000021084600F09CFF0021084600F098FF21
:103FB0000021084600F094FF0021084600F090FF21
:103FC0000121A42000F08CFF142001F013FB4FF41A
:103FD0001C51602000F084FF40F20221082000F014
:103FE0007FFF4FF40571302000F07AFF43F2157126
:103FF000312000F075FF40F20461322000F070FFC4
:1040000040F61661332000F06BFF42F2112134209C
:1040100000F066FF4FF4A851352000F061FF48F230
:104020000751362000F05CFF41F20741372000F0D5
:1040300057FF41F20341382000F052FF2021392080
:1040400000F04EFF1A21902000F04AFF00211020BE
:1040500000F046FF0721112000F042FF002112204E
:1040600000F03EFF0021132000F03AFF142001F081
:10407000C1FA4FF4E661102000F032FF40F2371130
:10408000112000F02DFF142001F0B4FA4FF4DC7180
:10409000122000F025FF142000E085E001F0AAFACC
:1040A0004FF47061132000F01BFF80212A2000F0E4
:1040B00017FF4821292000F013FF142001F09AFA7D
:1040C0004FF48071012000F00BFF4FF4E0610220FB
:1040D00000F006FF41F23801032000F001FF40F23A
:1040E0000221082000F0FCFE00210A2000F0F8FE6A
:1040F00000210C2000F0F4FE00210D2000F0F0FE65
:1041000030210E2000F0ECFE0021502000F0E8FEEF
:10411000EF21512000F0E4FE0021522000F0E0FEEB
:1041200040F23F11532000F0DBFE4FF41C516020A1
:1041300000F0D6FE0121612000F0D2FE00216A20AD
:1041400000F0CEFE1121902000F0CAFE4FF4C061B5
:10415000922000F0C5FE40F20241932000F0C0FE24
:104160000221942000F0BCFE142001F043FA01214A
:10417000072000F0B5FE142001F03CFA6121072071
:1041800000F0AEFE40F27311072000F0A9FE0021FE
:10419000202000F0A5FE0021212000F0A1FE222118
:1041A000002000F09DFE11E3794880884CF2055113
:1041B00088427CD10021084600F092FE002108468A
:1041C00000F08EFE142001F015FA0021084600F0E0
:1041D00087FE0021084600F083FE0021084600F01B
:1041E0007FFE0021084600F07BFE0121A42000F0A4
:1041F00077FE142001F0FEF94FF41C51602000F00E
:104200006FFE40F60601082000F06AFE40F20371DE
:10421000302000F065FE0121312000F061FE042114
:10422000322000F05DFE4FF48171332000F058FE23
:104230004FF44071342000F053FE40F2031135205A
:1042400000F04EFE1F21362000F04AFE40F20371BE
:10425000372000F045FE0121382000F041FE042106
:10426000392000F03DFE1521902000F039FE4FF47A
:104270008261102000F034FE40F24721112000F04E
:104280002FFE4FF4DE71122000F02AFE4FF4606121
:10429000132000F025FE782001F0ACF94FF4807176
:1042A000012000F01DFE4FF40071022000E052E0FA
:1042B00000F016FE41F23001032000F011FE08214B
:1042C0000A2000F00DFE00210C2000F009FE202144
:1042D0000E2000F005FE00210F2000F001FE00215D
:1042E000202000F0FDFD0021212000F0F9FD3D21FE
:1042F0002A2000F0F5FD142001F07CF92D21292061
:1043000000F0EEFD0021502000F0EAFD4DF2EF013B
:10431000512000F0E5FD0021522000F0E1FD40F2C7
:104320003F11532000F0DCFD0021612000F0D8FD9A
:1043300000216A2000F0D4FD4FF44071922000F07B
:10434000CFFD0521932000F0CBFD4FF480710720B5
:1043500000F0C6FD3AE20E48808844F231518842AE
:104360007ED10121002000F0BBFD0A2001F042F9BE
:1043700041F22861102000F0B3FD0E21122000F060
:10438000AFFD40F63921132000F0AAFD0A2001E01C
:104390002C00002001F02EF94021112000F0A0FD9A
:1043A0005021152000F09CFD0A2001F023F91E2168
:1043B000122000F095FD0A2001F01CF94FF4B151D4
:1043C000102000F08DFD42F63921132000F088FD09
:1043D0000A2001F00FF94FF48071012000F080FDF8
:1043E0004FF44071022000F07BFD41F238010320C0
:1043F00000F076FD40F20221082000F071FD082156
:104400000A2000F06DFD0021302000F069FD40F22F
:104410000241312000F064FD4FF48371322000F03E
:104420005FFD40F20351332000F05AFD4FF48271DA
:10443000342000F055FD40F20131352000F050FDF0
:1044400040F20771362000F04BFD40F20531372075
:1044500000F046FD4FF40271382000F041FD00E00D
:104460003EE040F60B71392000F03AFD0221412078
:1044700000F036FD4FF41C51602000F031FD0121A9
:10448000612000F02DFD4FF40471902000F028FD14
:104490004FF48571922000F023FD0421932000F059
:1044A0001FFD4FF48071A02000F01AFD01210720AC
:1044B00000F016FD2121072000F012FD2321072026
:1044C00000F00EFD3321072000F00AFD40F2331109
:1044D000072000F005FD0021A02000F001FD75E19E
:1044E000C048808844F2355188427CD13021152063
:1044F00000F0F6FC10219A2000F0F2FC202111209F
:1045000000F0EEFC43F22841102000F0E9FC02210B
:10451000122000F0E5FC41F23801132000F0E0FC2D
:10452000282001F067F81221084600F0D9FC282065
:1045300001F060F843F22041102000F0D1FC43F27A
:104540003801132000F0CCFC462001F053F8002184
:10455000302000F0C5FC40F20241312000F0C0FCE8
:1045600040F20731322000F0BBFC4FF441713320A0
:1045700000F0B6FC0421342000F0B2FC40F201410E
:10458000352000F0ADFC40F20771362000F0A8FCA9
:1045900040F20531372000F0A3FC4FF4C26138200F
:1045A00000F09EFC4FF4C261392000F099FC4FF4FA
:1045B0008071012000F094FC4FF44071022000F063
:1045C0008FFC41F23001032000F08AFC40F6080124
:1045D000082000F085FC08210A2000F081FC4FF43F
:1045E0001C51602000E033E000F07AFC01216120E2
:1045F00000F076FC4FF49F71902000F071FC4FF4B6
:104600008071922000F06CFC4FF48071932000F0D8
:1046100067FC4FF44051A02000F062FC1021A32061
:1046200000F05EFC0121072000F05AFC2121072048
:1046300000F056FC2321072000F052FC3321072014
:1046400000F04EFC40F23311072000F049FCBDE0C1
:104650006448808841F663118842F8D1E22000F076
:1046600029FC1D2000F01AFC022000F017FC042099
:1046700000F014FC642000F0D9FFE02000F01AFCE8
:10468000012000F00BFC0A2000F0B4FFE02000F055
:1046900011FC032000F002FC0C2000F0ABFF012015
:1046A00000F008FC0A2000F0A5FFE62000F002FC64
:1046B0002F2000F0F3FBFF2000F0F0FBFF2000F0C4
:1046C000EDFBB02000F0F6FB202000F0E7FB00201F
:1046D00000F0E4FB032000F0E1FB40F21F3000F0AB
:1046E000DDFB012000F0DAFB40F2DF1000F0D6FB2A
:1046F000002000F0D3FBB42000F0DCFB042000F02D
:10470000CDFB40F21F4000F0C9FB002000F0C6FBCB
:104710002E2000F0C3FB002000F0C0FB002000F0C2
:10472000BDFB002000F0BAFB002000F0B7FBB62074
:1047300000F0C0FB022000F0B1FB4FF4037000F06A
:10474000ADFB002000F0AAFB172000F0A7FB15200E
:1047500000F0A4FB002000F0A1FB002000F09EFB75
:10476000F02000F0A7FB032000F098FB292000F0C8
:10477000A1FBD02000F09EFB002000F08FFBBE20AC
:1047800000F098FB052000F089FBFE2000F086FB7E
:10479000012000F083FB002000F080FB002000F0EF
:1047A0007DFB002000F07AFBB82000F083FB0320A3
:1047B00000F074FB012000F071FBBA2000F07AFBDE
:1047C000012000F06BFB642000F026F80020FCF7CD
:1047D00059F90120044908604FF6FF70FCF71CF9F5
:1047E00021B000BD2C000020BC82404208B5034827
:1047F00000880090BDF8000008BD00008000006C3B
:1048000010B50446204600F055FB052000F00EFFD1
:10481000FFF7ECFF10BD000070B52DED048B0446D2
:10482000BE2000F047FB052000F038FB204601F0D9
:10483000EAF941EC190B9FED0E0B53EC102B01F034
:10484000F5F941EC180B01F0B1F985B2284600F0FA
:1048500025FB012000F022FBFF2000F01FFB0020C1
:1048600000F01CFB002000F019FBBDEC048B70BDB8
:104870006666666666660440F0B505460024002755
:10488000B748807901280BD1B548808846F60401E5
:10489000884205D0B248808841F66311884208D129
:1048A000AF488079F0B9AE48808841F663118842FC
:1048B00018D1082D15D2DFE805F00406080A0C0E01
:1048C000101206250DE007250BE0042509E005255B
:1048D00007E0012505E0002503E0032501E00225AE
:1048E00000BF00BF9E48808849F24131884217D0FE
:1048F0009B48808846F60401884211D098488088F9
:1049000045F2103188420BD09548808845F210510D
:10491000884205D09248808841F6631188427DD153
:10492000082D1CD2DFE805F00406090C0F1215183B
:1049300000BF14E044F0800411E044F040040EE0B5
:1049400044F0C0040BE044F0200408E044F06004AC
:1049500005E044F0A00402E044F0E00400BF00BF22
:104960007F48808845F21051884202D14FF4585751
:1049700000E036277A48808845F2103188420DD011
:104980007748808845F21051884207D07448808863
:1049900041F66311884201D044F0080470488088D1
:1049A00046F60401884201D144F00204214638460B
:1049B00000F096FA6A48808841F6631188421DD05B
:1049C00004F0200068B1664800886549498888423B
:1049D00014DA6348068840886149088008464680A2
:1049E0000CE05F4800885E494988884206DD5C48E3
:1049F000068840885A49088008464680584880887A
:104A000045F21051884254D15549488900F052FA74
:104A1000002000F043FA5249498900E078E0491C3F
:104A200088B200F047FA002000F038FA4C49498972
:104A3000891C88B200F03EFA49490988491EC1F331
:104A40000F2000F02BFA46494989C91C88B200F0B2
:104A500031FA43490978491EC8B200F01FFA4049AB
:104A6000888900F027FA002000F018FA3C4989896B
:104A7000491C88B200F01EFA002000F00FFA3849F5
:104A80008989891C88B200F015FA35494988491E80
:104A9000C1F30F2000F002FA31498989C91C88B29C
:104AA00000F008FA2E498978491EC8B200F0F6F9DC
:104AB00055E02B49488900F0FDF9002000F0EEF99F
:104AC000002000F0EBF926490988491EC1F30F20A8
:104AD00000F0E4F922490978491EC8B200F0DEF975
:104AE0001F49888900F0E6F9002000F0D7F900207E
:104AF00000F0D4F91A494988491EC1F30F2000F08B
:104B0000CDF917498978491EC8B200F0C7F926E0E7
:104B1000082D1CD2DFE805F004070A0D0F12151846
:104B200044F0300413E044F0100410E044F020049A
:104B30000DE000BF0BE044F0380408E044F0280426
:104B400005E044F0180402E044F0080400BF00BF90
:104B5000032744F480542146384600F0C1F9F0BDE3
:104B60002C00002030B504460D466748808849F285
:104B70004131884205D06448808845F2103188422E
:104B800014D16149488900F095F9201200F086F9A6
:104B9000E0B200F083F95C49888900F08BF92812B3
:104BA00000F07CF9E8B200F079F9ABE05648808873
:104BB00046F6040188421DD153488079012804D16A
:104BC00051480088401E001B84B24F49488900F0BC
:104BD00071F9201200F062F9E0B200F05FF94A4981
:104BE000888900F067F9281200F058F9E8B200F05F
:104BF00055F987E04448808841F66311884247D1DF
:104C000041488079A8B940480088401E001B84B202
:104C10003D49488900F04EF9002000F03FF900209E
:104C200000F03CF9201200F039F9E0B200F036F95A
:104C300016E03549488900F03DF9201200F02EF9C0
:104C4000E0B200F02BF930490988491EC1F30F206A
:104C500000F024F92C490978491EC8B200F01EF969
:104C60002949888900F026F9281200F017F9E8B2DE
:104C700000F014F924494988491EC1F30F2000F0BF
:104C80000DF921498978491EC8B200F007F939E0C9
:104C90001D48808845F21051884220D11A49488920
:104CA00000F008F9201200F0F9F817494989491C69
:104CB00088B200F0FFF8E0B200F0F0F812498889FD
:104CC00000F0F8F8281200F0E9F80F498989491C2A
:104CD00088B200F0EFF8E8B200F0E0F812E00A481D
:104CE0008079012804D108480088401E001B84B246
:104CF00005494889214600F0F3F803498889294687
:104D000000F0EEF830BD00002C0000202DE9F84F37
:104D100080460E4617461C46B3462046E31704EB72
:104D20005373DB1021464FEAE47C04EB5C7C4FEAD2
:104D3000EC0CA4EBCC0CBCF1000F02D04FF0010C3A
:104D400001E04FF0000C6344224604EBD27C4FEAB2
:104D50006C0C03FB0CF3DBB20093A7F12000C7B28D
:104D6000002556E00C2C07D107EB47002B4901EB3F
:104D7000800010F8059013E0102C05D1284800EBB6
:104D8000071010F805900BE0182C07D107EBC700AF
:104D9000244901EB800010F8059001E0BDE8F88F90
:104DA0004FF0000A2FE009F0800030B11E48028861
:104DB00031464046FBF746FF07E00A9828B91B48F2
:104DC000028831464046FBF73DFF4FEA49604FEA13
:104DD0001069701C86B216484088B04200DCDDE7DE
:104DE000A6EB0B00A0420AD15E4608F101001FFAB3
:104DF00080F80F480088404500DCCFE706E00AF164
:104E0000010000F0FF0ABAF1080FCCDB00BF681CFC
:104E1000C5B200988542A5DB00BFBFE7325E01083E
:104E2000A662010896680108020000200400002024
:104E30002C0000202DE9F84704460D46904699467F
:104E4000DDE9096704F0FF0A08EB04001FFA80F8A7
:104E500009EB05001FFA80F916E0444502DB5446D1
:104E6000A81985B24D4500DB14E0002000903A7887
:104E7000334629462046FFF749FF304606EBD071FE
:104E800004EB61018CB27F1C38787E2802DC387814
:104E90002028E2DA00BFBDE8F887000001B5BDF8C0
:104EA00000000090BDF800000149088008BD000026
:104EB0008000006C01B5BDF800000090BDF8000056
:104EC0000149088008BD00007E00006C024800898E
:104ED00002490880704700002C0000207E00006C12
:104EE000034A10804FF0D842A2F8801070470000AB
:104EF0007E00006C1CB50121202000F067F84FF403
:104F0000C060009001208DF8040000208DF806009C
:104F100003208DF8050001208DF80700694604483C
:104F2000FBF77BFC4FF4C0610148FBF7EAFC1CBDBA
:104F30000014024000BFFEE77047000070B500217A
:104F400000230F22C4781CB3174C246804F4E064D7
:104F5000C4F5E064C4F30721C1F10404E3B20A41DB
:104F600044789C40E1B28478144021430C07210E20
:104F70000E4C05786155047804F01F050124AC40FF
:104F800005786D11AD0005F1E025C5F8004109E097
:104F9000047804F01F050124AC40054D0678761115
:104FA00045F8264070BD00000CED00E000E400E094
:104FB00080E100E002490143024A116070470000AD
:104FC0000000FA050CED00E07047000029B1064A28
:104FD00012680243044B1A6004E0034A12688243D9
:104FE000014B1A60704700003038024029B1064A70
:104FF00012680243044B1A6004E0034A12688243B9
:10500000014B1A60704700003838024029B1064A47
:1050100012680243044B1A6004E0034A1268824398
:10502000014B1A607047000044380240F0B500217F
:1050300000220024022500260223324F3F6807F099
:105040000C0121B1042905D0082937D105E02E4FE4
:10505000076036E02D4F076033E02A4F3F1F3F685F
:10506000C7F38056274F3F1F3F6807F03F036EB1DD
:10507000264FB7FBF3F7DFF88CC0ACF1040CDCF87B
:1050800000C0CCF3881C07FB0CF40CE01E4FB7FBF0
:10509000F3F7DFF870C0ACF1040CDCF800C0CCF31F
:1050A000881C07FB0CF4174F3F1F3F68C7F30147ED
:1050B0007F1C7D00B4FBF5F7076002E0124F07602C
:1050C00000BF00BF0F4F3F6807F0F0010909104F04
:1050D0007A5C0768D74047600A4F3F6807F4E051A1
:1050E000890A0B4F7A5C4768D7408760054F3F6855
:1050F00007F46041490B064F7A5C4768D740C760A8
:10510000F0BD0000083802400024F40000127A00CC
:105110001800002001461C48814201D2002070473F
:105120001A48814201D20820F9E71948814201D288
:105130001020F4E71748814201D21820EFE7164803
:10514000814201D22020EAE71448814201D228207E
:10515000E5E71348814201D23020E0E7114881425F
:1051600001D23820DBE71048814201D24020D6E747
:105170000E48814201D24820D1E70D48814201D238
:105180005020CCE75820CAE7004000080080000803
:1051900000C0000800000108000002080000040828
:1051A000000006080000080800000A0800000C08BB
:1051B00000000E0801460868704700002DE9F0471E
:1051C00004460E4617464FF009080025A946B4F1DB
:1051D000006F02D304F0030008B1BDE8F087FBF7CD
:1051E0006BFA0020FBF7B6F9254604EB870918484F
:1051F000854215D211E02846FFF7DCFF401C58B16C
:105200002846FFF787FF82460221FBF7B5F9804663
:10521000B8F1090F01D002E02D1D4D45EBD300BFC1
:10522000B8F1090F0CD108E020463168FBF71CFAF1
:10523000092800D003E0241D361D4C45F4D300BFDF
:105240000120FBF787F9FBF705FA00BFC5E700006F
:105250000000FF1F704700000CB500200190009077
:105260003448006840F480303249086000BF31485B
:10527000006800F4003000900198401C01900098F4
:1052800018B90198B0F5A04FF1D12A48006800F490
:10529000003010B10120009001E000200090009843
:1052A000012846D123484030006840F08050214911
:1052B000403108602048006840F440401E490860C2
:1052C0001C48083000681B4908310860084600681F
:1052D00040F4004008600846006840F4A0500860B0
:1052E0001648091F0860081F006840F08070091FF9
:1052F000086000BF0F48006800F000700028F9D077
:1053000040F205700E4908600A480830006820F035
:1053100003000849083108600846006840F00200B0
:10532000086000BF03480830006800F00C0008283F
:10533000F8D10CBD0038024000700040085440070E
:10534000003C0240042808D14FF0E021096941F0F7
:1053500004014FF0E022116107E04FF0E0210969FC
:1053600021F004014FF0E022116170477047000006
:1053700010B51548006840F47000134908601348E0
:10538000006840F001001149086000200F49083111
:1053900008600E4800680E4908400C4908600D4836
:1053A000091D0860081F006820F48020091F08609C
:1053B000002006490C310860FFF74EFF4FF00060F7
:1053C00001498039086010BD88ED00E000380240D6
:1053D000FFFFF6FE1030002410B540F225510B48B7
:1053E00000F026F888B1094800F0DCF8C4B208489B
:1053F0000068B0F5F03F08D20648054909684454F2
:1054000003480068401C0249086010BD00100140BC
:10541000140000200010002021B1828942F40052C3
:10542000828104E082894DF6FF731A4082817047C1
:1054300070B50246002400230025002040F66A16BD
:10544000B14200D100BFC1F3421501F01F03012694
:1054500006FA03F3012D02D19689334006E0022DAE
:1054600002D1168A334001E0968A33400C1201269D
:1054700006FA04F41688344013B10CB1012000E0A0
:10548000002070BDF0B50346002400260025002052
:1054900040F66A17B94200D100BF1846C1F3421462
:1054A00001F01F06012707FA06F5012C01D10C3087
:1054B00004E0022C01D1103000E014301AB107686A
:1054C0002F43076002E00768AF430760F0BD0000AC
:1054D0002DE9FF4705460E460024A14600BFA04621
:1054E000B08900B100BF2C8A24F44054F0880443F2
:1054F0002C82AC8941F20C608443B0883189084326
:10550000718908430443AC81AC8A24F44074B089A7
:105510000443AC826846FFF789FD2048854202D0EB
:105520001F48854202D1DDF80C9001E0DDF80890BB
:10553000A88900F4004040B109EBC90000EB091054
:1055400031684900B0FBF1F707E009EBC90000EB57
:10555000091031688900B0FBF1F76420B7FBF0F067
:1055600004012009642101FB1078A88900F400409F
:1055700040B1322000EBC800B0FBF1F000F00700B2
:10558000044308E0322000EB08106421B0FBF1F086
:1055900000F00F0004432C81BDE8FF87001001409C
:1055A0000014014001468888C0F30800704700BF1E
:1055B000FEE7014600BF704710B504466FF00400D7
:1055C000FFF7C0FEE11704EB5171C1F3C701074AB1
:1055D00011701046007800EB4001C1EBC0104FF68F
:1055E000FF7101EAC0000249088010BD06000020DA
:1055F0000800002070B504464FF4077094FBF0F0EB
:10560000C6B24FF4077094FBF0F100FB114085B275
:1056100005E04FF4077000F02FF8701EC6B2002EA0
:10562000F7D115B1284600F027F870BD0146114AA0
:1056300012784A434FF0E0235A6100229A611A46D9
:10564000126942F001021A6100BF4FF0E0221069B6
:1056500000F001021AB100F48032002AF5D04FF0B8
:10566000E022126922F001024FF0E0231A610022C9
:105670009A617047060000200146114A12884A4389
:105680004FF0E0235A6100229A611A46126942F0F3
:1056900001021A6100BF4FF0E022106900F0010220
:1056A0001AB100F48032002AF5D04FF0E0221269DE
:1056B00022F001024FF0E0231A6100229A61704744
:1056C0000800002000BF054A128802F04002002AAC
:1056D000F9D0C2B2014B9A8070470000001001401F
:1056E00010B504462046FFF765FD07490840B0F1B4
:1056F000005F08D16068054908602068FAF7A1FDDD
:1057000002480068804710BD0000FE2F28000020DE
:105710002DE9F05F0746884691460025BB46444682
:10572000AA461DE0E0780606A07846EA00466078C2
:1057300046EA002620780643241D2846691C8DB2BF
:105740000C4941F82060B5F5007F07D100254FF4E2
:1057500000725846FFF732FD0BF5006B0AF1040AA0
:10576000CA45DFD325B12A4602495846FFF726FD30
:10577000BDE8F09F3C0000201CB54FF0000800255C
:1057800000264FF4A060FFF715FCA820FFF714FFD8
:105790004FF4E12000F0B4F9FFF7ACFBFBF76EFB30
:1057A000FBF7B4F84FF478407249088072A01021DA
:1057B0000B46C822CDE9001032211E20FFF73AFB2C
:1057C00072A010210B46C822CDE9001046211E20F0
:1057D000FFF730FB70A010210B46C822CDE9001066
:1057E0005A211E20FFF726FB6DA010210B46C82270
:1057F000CDE900106E211E20FFF71CFB6BA01021CD
:105800000B46C822CDE9001082211E20FFF712FBB3
:105810006CA010210B46C822CDE90010BE211E202D
:10582000FFF708FB1F20534908800880A0E06A4862
:105830000068B8B16848006880450FD166480088A4
:1058400085B24FF0000800206349086063A0FAF7B2
:105850001BFD294666A0FAF717FD03E05E480088A5
:105860001FFA80F8781CC7B20A20FFF7C3FE1E2F6C
:1058700015D16448006808B9012000E000206149A2
:10588000086000275EB1701EC6B246B94FF6FF70C1
:10589000E223F022D22100901E20FBF793FA002091
:1058A000FBF756F80446042C44D1002D34D056A002
:1058B000FAF7EAFC59A010210B46C822CDE90010E6
:1058C000D2211E20FFF7B6FA5A48406800F07F4008
:1058D000B0F1006F12D12A4657495848FFF718FF18
:1058E00057A010210B46C822CDE90010D2211E205E
:1058F000FFF7A0FA58A0FAF7C7FC1AE05AA0102147
:105900000B46C822CDE90010D2211E20FFF792FAE3
:105910005BA0FAF7B9FC0CE05EA0FAF7B5FC63A057
:1059200010210B46C822CDE90010D2211E20FFF71E
:1059300081FA0726032C1BD15EA0FAF7A5FC3F488D
:10594000406800F07F40B0F1006F03D13B48FFF7A3
:10595000C7FE0CE05EA0FAF797FC64A010210B468E
:10596000C822CDE90010D2211E20FFF763FA0726D6
:105970005DE70000020000204578706C6F72657270
:105980002053544D3332463400000000494150202A
:10599000544553540000000042595F4C5A580000CF
:1059A000323031372F30312F303200004B45595FC4
:1059B00055503A436F70792041505032464C415314
:1059C000480000004B4559323A52756E20464C4112
:1059D000534820415050000014000020D3C3BBA7FF
:1059E000B3CCD0F2BDD3CAD5CDEAB3C9210D0A00DC
:1059F000B4FAC2EBB3A4B6C83A25644279746573AD
:105A00000D0A0000A4824242BFAACABCB8FCD0C2A0
:105A1000B9CCBCFE2E2E2E0D0A000000436F70790B
:105A2000696E672041505032464C4153482E2E2E0D
:105A300000000000001000200010002000000108FD
:105A4000436F7079204150502053756363657373C1
:105A50006564212100000000B9CCBCFEB8FCD0C2B6
:105A6000CDEAB3C9210D0A00496C6C6567616C20F1
:105A7000464C415348204150502120200000000056
:105A8000B7C7464C415348D3A6D3C3B3CCD0F221B9
:105A90000D0A0000C3BBD3D0BFC9D2D4B8FCD0C25A
:105AA000B5C4B9CCBCFE210D0A0000004E6F2041E8
:105AB00050502100BFAACABCD6B4D0D0464C4153E6
:105AC00048D3C3BBA7B4FAC2EB21210D0A000000E2
:105AD000B7C7464C415348D3A6D3C3B3CCD0F22C5E
